:020000040800F2
:10000000600600200DAA0008C9A60008CDA60008B9
:1000100000000000000000000000000000000000E0
:10002000000000000000000000000000E3A600083F
:100030000000000000000000E5A60008E7A6000898
:100040001F5B000847650008F3A600080366000868
:1000500073730008FF7600082F7B0008F37E00080A
:10006000777F00089380000805A700081B87000819
:100070000FA70008B395000817970008D3A700083A
:10008000EBA90008F7A9000831AA00080000000049
:1000900033AA000835AA000837AA000839AA0008C0
:1000A0003BAA000819A700083DAA00083FAA0008BB
:1000B00041AA000823A700080000000047A7000885
:1000C00038B504000D0001F023FB2A001148211867
:1000D000002001F030FB040001F026FB200032BDBF
:1000E00001680968490700D4704780B501F090FCA9
:1000F00009490A79130001D1C88001BD012A01D143
:10010000088101BD022A01D1488101BD032A00D125
:10011000888101BD00000808E81D0020FEB5654F7C
:10012000654C0122211D380001F079FE01222100D9
:10013000380001F0FBFE614920001C3002F0B8F8E5
:100140002076217E20001C3002F0EDF85C49200072
:100150001C3002F0ADF82076217E20001C3002F029
:10016000E2F802F057FA02F05DF9564920001C301F
:1001700002F09EF82076217E20001C3002F0D3F899
:10018000514920001C3002F093F82076217E200097
:100190001C3002F0C8F84D4801F0CEFB4C4802F08C
:1001A0005DFB4C4920001C3002F082F82076217E55
:1001B00020001C3002F0B7F801F0AAFA46480568A2
:1001C00001F0B2FA0122211D380001F028FE0122BF
:1001D0002100380001F0AAFE6079290C401821792D
:1001E00000263E4DC0B23C280EDB3C38172909D111
:1001F00000212278521C2023EA54D2B2082A06DBBE
:10020000012203E0491C02E022782023EA542970ED
:100210006870A079A870A0686860EE602E616E6159
:10022000AE618020C005E8614020E870C03068629F
:1002300001222900380001F09FFE6878029028789A
:100240000190607900902379227800BF25A12000D9
:100250001C3002F02DF82076217E20001C3002F0A8
:1002600062F8608B401C80B2092800D100206083B6
:1002700028A120001C3002F01BF82076217E2000EF
:100280001C3002F050F8FA20400002F06DFC1448D7
:100290000168802252050A43026002F077FC02F0F6
:1002A0006FFCCD48016804220A43026002F07AFC28
:1002B000F7BD0000AC1D00203010002088A1000810
:1002C000B8A10008CCA10008F0A100088C1B0020F8
:1002D000EC1B002014A2000800000808841D002068
:1002E000381002403D3E4D6561737572656D656EF7
:1002F000743A202025642054696D653A25643A25B6
:1003000064202020616C61726D3A25643A25642E68
:100310000D0A00003D3D3D3D3D20436F6D706C6515
:1003200074652073656E736F72206D65617375728D
:10033000656D656E742050726F63657373203D3D0B
:100340003D3D3D3D0D0A0000F0B58FB0DD4CA349A9
:1003500020001C3001F0ACFF2076217E20001C30F4
:1003600001F0E1FFFA20400002F0FEFB9C49200072
:100370001C3001F09DFF2076217E20001C3001F012
:10038000D2FF02F0A7F80120608300F07BF99548C6
:1003900002F0EAFB00F030FA01281AD1924920005D
:1003A0001C3001F085FF2076217E20001C3001F0FA
:1003B000BAFF00F0FDFC8D4920001C3001F078FFF1
:1003C0002076217E20001C3001F0ADFF00F0DAFE27
:1003D0000AE0874920001C3001F06AFF2076217E68
:1003E00020001C3001F09FFFCC4920001C3001F0A0
:1003F0005FFF2076217E20001C3001F094FF00F08A
:10040000ADF9C74920001C3001F052FF2076217E53
:1004100020001C3001F087FFC24802F00FFCC249E7
:1004200020001C3001F044FF2076217E20001C308B
:1004300001F079FF0122211DBC4801F0F0FC0122EE
:100440002100BA4801F072FDA07904906079039010
:100450002079029020780190A07800906378E2786B
:10046000B34920001C3001F023FF2076217E2000BC
:100470001C3001F058FF01F04BF9D348006803909D
:1004800001F052F960790399090C4018217900268E
:1004900005ADC0B23C280FDB3C38172909D12E70BE
:1004A0002178491C2022A954C9B2082908DB01215E
:1004B00005E0491C297003E0297021782022A95405
:1004C0006870A079A870A0680690089609960A96A8
:1004D0000B968020C0050C904027EF70800D0E9089
:1004E000012205A9914801F047FD6878029028781B
:1004F0000190607900902379227800BF3DA120000F
:100500001C3001F0D5FE2076217E20001C3001F049
:100510000AFF60790399090E40182179C0B23C287E
:100520000FDB3C38172909D12E702178491C202275
:10053000A954C9B2082908DB012105E0491C29702A
:1005400003E0297021782022A9546870A079A8704E
:10055000A0680690089609960A960B9638060C90A5
:10056000EF70400D0E90012205A9704801F004FDC6
:100570006878029028780190607900902379227839
:1005800028A120001C3001F093FE2076217E20005F
:100590001C3001F0C8FEFA20400002F0E5FA00BF6E
:1005A0002CA120001C3001F083FE2076217E20004B
:1005B0001C3001F0B8FEFA20800002F0D5FA02F0FB
:1005C000E5FA02F0DDFA0448016804220A430260F9
:1005D00002F0E8FA0FB0F0BD0070004040A2000841
:1005E00068A20008581B000098A20008B0A20008EA
:1005F000D4A200083D3E4D6561737572656D656EF0
:10060000743A2025642054696D653A25643A25645E
:10061000202020616C61726D3A25643A25642E0DAC
:100620000A0000003D3E436F6D6D756E6963617435
:10063000696F6E3A2025642054696D653A25643AE5
:100640002564202020616C61726D3A25643A25642E
:100650002E0D0A003D3D3D3D20436F6D706C65746D
:100660006520496F5420636F6D6D756E69636174A9
:10067000696F6E2050726F63657373203D3D3D0D51
:100680000A00000070B50F4C2AA120001C3001F0B8
:100690000FFE2076217E20001C3001F044FE4B4DE1
:1006A0008026360101223100280003F011F8FA20DB
:1006B000400002F059FA00223100280003F008F847
:1006C000C44801E03010002002F04EFA710028000A
:1006D00002F0F8FF012810D101221102BE4802F0F9
:1006E000F7FF00BF18A120001C3001F0E1FD2076CB
:1006F000217E20001C3001F016FE7408012221002A
:10070000280002F0E5FF9620400002F02DFA0022BA
:100710002100280002F0DCFF70BD0000FCA20008F0
:1007200024A30008D41C002014A20008AC1D002043
:1007300054A300083D3E426F6F74696E67204247C4
:1007400039362E2E2E0D0A003D3E4247393620699D
:100750007320626F6F7465642E0A000038B59F4C79
:100760001BA120001C3001F0A3FD2076217E20007B
:100770001C3001F0D8FD002280214900964802F08B
:10078000A7FFFA20400002F0EFF900BF17A12000F8
:100790001C3001F08DFD2076914D20206A21685497
:1007A000C822872080002118280002F0C7FAFA2307
:1007B0009B00227E21001C31280002F05CFAFA2006
:1007C000C00002F0D1F931BD000008080008005057
:1007D0003D3E506F776572696E6720446F776E207B
:1007E000424739362E2E2E0D0A00000041542B515F
:1007F000504F57440D0A0000F8B5784C7949200055
:100800001C3001F055FD2076217E20001C3001F0C7
:100810008AFD754920001C3001F04AFD2076704D9C
:100820000C202968086220276A216F5487208000E5
:1008300020180090C8220146280002F07FFAFA260C
:10084000B6003300227E21001C31280002F013FA8A
:10085000700002F089F91421009801F064FD6349E9
:1008600020001C3001F024FD20766A216F54C8223C
:100870000099280002F062FA3300227E21001C3128
:10088000280002F0F8F9700002F06EF914210098C7
:1008900001F049FD5649009802F02EFF002800D1D2
:1008A00085E0544920001C3001F002FD2076217EB5
:1008B00020001C3001F037FD50A120001C3001F059
:1008C000F7FC20760C20296808626A216F54C82240
:1008D0000099280002F032FA3300227E21001C31F8
:1008E000280002F0C8F9300002F03EF91421009807
:1008F00001F019FD44A1009802F0FEFE002859D035
:1009000043A120001C3001F0D3FC2076217E200082
:100910001C3001F008FD00BF42A120001C3001F096
:10092000C7FC20766A216F54C8220099280002F083
:1009300005FA3300227E21001C31280002F09BF9C9
:10094000300002F011F92CA1009802F0D5FE002829
:100950003ED000BF36A120001C3001F0A9FC20765B
:10096000217E20001C3001F0DEFC00BF37A12000FA
:100970001C3001F09DFC20766A202F54C82200997B
:10098000280002F0DBF93300227E21001C31280010
:1009900002F071F9300002F0E7F817A1009802F0B8
:1009A000ABFE002808D000BF2FA100F0A5FE00BFBD
:1009B00031A102E036A100E03BA120001C3001F093
:1009C00077FC2076217E20001C3001F0ACFC00205A
:1009D000F2BD000088130000000400503010002019
:1009E000D41C00207CA3000894A300089CA300084A
:1009F000A4A30008ACA300084F4B000041542B43B4
:100A000050494E3F0D0A0000524541445900000034
:100A100053494D2063617264205265616479210DF0
:100A20000A00000041542B4346554E3D310D0A004B
:100A30005365742066756C6C2066756E6374696F9F
:100A40006E616C697479210D0A00000041542B51CC
:100A50004346473D22696F746F706D6F6465222C49
:100A6000302C310D0A00000053657420496F54206A
:100A70006D6F6465210D0A0042473936206E6F7430
:100A8000206465746563746564210D0A00000000CC
:100A900053494D2063617264204E6F74205265612A
:100AA0006479210D0A00000053657420496F5420B9
:100AB0006D6F6465204661696C6564210D0A0000F4
:100AC000F0B585B0A64EA7A187208000301802F0AF
:100AD0002FFEA4A1002002F02BFE050000D13CE176
:100AE00003AAA1A102F04CFE9EA1002002F020FE6C
:100AF000050002F057FE02009C4C290020003C300B
:100B000002F058FE97A1002002F012FE050002F04C
:100B100049FE02002900200002F04CFE91A10020B5
:100B200002F006FE050002F03DFE02002900200052
:100B30005C3002F03FFE8BA1002002F0F9FD0021A5
:100B4000A163202702E0D5555B1CA363A36BC55CA2
:100B5000E218202DF7D1D15582A1002002F0E8FD46
:100B6000050002F01FFE0200290020007C3002F088
:100B700021FEFA20400001F0F7FF20007C300290B7
:100B800020002030019020005C30009023002200E3
:100B90003C32774930001C3001F08AFB3076317EE0
:100BA00030001C3001F0BFFB200002F0FBFD0028EC
:100BB00012D02078303861782C398840A1782D39CE
:100BC0008840E1782E39884021792F398840606348
:100BD000C1B20120FFF774FA664930001C3001F001
:100BE00067FB3076317E30001C3001F09CFB62A741
:100BF0002000203002F0D6FD002812D0390020005D
:100C0000203002F095FD3900002002F091FD220015
:100C1000383255A102F0B4FDA16BC9B20220FFF732
:100C20004FFA20007C3002F0BDFD002812D03900C0
:100C300020007C3002F07CFD3900002002F078FDBD
:100C40002200383248A102F09BFDA16BC9B20320FB
:100C5000FFF736FA20003C3002F0A4FD00287CD0DB
:100C6000390020003C3002F063FD050002F09AFDDF
:100C70000200290020003C3002F09CFD39000020D9
:100C800002F056FD050002F08DFD02002900200053
:100C9000203002F08FFD394F0122311D380001F064
:100CA000BEF801223100380001F040F934A52900D6
:100CB00020003C3002F03CFD03AA2BA102F060FDB5
:100CC0000398642102F0A1FDF1702900002002F0D8
:100CD0002FFD2200383224A102F052FDA06B70706B
:100CE0002900002002F024FD220038321EA102F06B
:100CF00047FDA06BB07023A529002000203002F032
:100D000017FD2200383218A102F03AFDA06B3071B5
:100D10002900002002F00CFD2200383212A102F05E
:100D20002FFDA06B70710122311D380000F0F8FF1B
:100D300001223100380001F098F8FA20400001F05B
:100D400013FF00BF10A130001C3001F0B1FA307663
:100D5000317E30001C3001F0E6FA05B0F0BD000035
:100D6000301000202000000025640000441C0020FA
:100D7000C0A30008E4A300085F000000AC1D002031
:100D80002F0000003A0000000D0A546865204D4312
:100D90005520636F6E66696775726174696F6E2046
:100DA00069732075706461746564210D0A00000028
:100DB000F0B583B0B04CB14920001C3001F078FA96
:100DC00020762027AE4D6A216F548720800020189E
:100DD0000090C8220146280001F0B0FFFA26B600B4
:100DE0003300227E21001C31280001F044FF300036
:100DF00001F0BAFEA3A1009802F07EFC002876D094
:100E0000A14920001C3001F053FA2076217E2000F9
:100E10001C3001F088FA9D4920001C3001F048FA8E
:100E200020766A216F54C8220099280001F086FFBD
:100E30003300227E21001C31280001F01CFF30000D
:100E400001F092FE8FA1009802F056FC00284ED0CF
:100E50008F4920001C3001F02BFA2076217E2000E3
:100E60001C3001F060FA8B4920001C3001F020FAA0
:100E700020766A216F54C8220099280001F05EFF95
:100E80003300227E21001C31280001F0F4FE3000E6
:100E900001F06AFE7BA1009802F02EFC002826D00B
:100EA0007D4920001C3001F003FA2076217E2000CD
:100EB0001C3001F038FA794920001C3001F0F8F9B3
:100EC00020766A216F54C8220099280001F036FF6D
:100ED0003300227E21001C31280001F0CCFE704836
:100EE00001F042FE6F49009802F006FC002800D194
:100EF000C0E06D4920001C3001F0DAF92076217E37
:100F000020001C3001F00FFA684920001C3001F06D
:100F1000CFF920766A216F54C8220099280001F089
:100F20000DFF3300227E21001C31280001F0A3FEBA
:100F30005B4801F019FE5E49009802F0DDFB0028D5
:100F400061D05C4920001C3001F0B2F92076217E8E
:100F500020001C3001F0E7F959A120001C3001F0FD
:100F6000A7F920760C20296808623300227E210030
:100F70001C31280001F07FFE700801F0F5FD00BF74
:100F800059A120001C3001F093F92076217E200029
:100F90001C3001F0C8F948A120001C3001F088F98C
:100FA000207622001C32454920001C3001F080F9D7
:100FB0002076217E20001C3001F0B5F900206083EE
:100FC0003300227E21001C31280001F054FE7008FD
:100FD00001F0CAFD1A20694608716A216F54C822BF
:100FE0000099280001F0AAFE3300012201A928007F
:100FF00001F041FE2A4801F0B7FD00BF4AA1009868
:1010000002F07AFB002835D04BA120001C3001F003
:101010004FF92076217E20001C3001F084F900BFBA
:101020004CA120001C3001F043F920766A202F5497
:10103000C8220099280001F081FE3300227E2100A1
:101040001C31280001F017FE300001F08DFD0DA1CC
:10105000009802F051FB00280CD000BF41A12000F5
:101060001C3001F025F92076217E20001C3001F093
:101070005AF90120FEBD000030100020FCA300083A
:10108000D41C00204F4B000014A4000828A4000822
:1010900048A4000860A4000880A4000898A40008E0
:1010A000B80B0000BCA40008CCA40008DCA4000815
:1010B000FCA400080CA500085350000024A500085B
:1010C00041542B514D545055423D302C302C302C36
:1010D000302C2277696C6C69616D2F746F70696355
:1010E00031220D0A000000003D3E55706C6F6164B6
:1010F000696E672073746F7265642073656E736FB9
:101100007220646174612C20737461747573206142
:101110006E64206261747465727920766F6C74619C
:1011200067652E0D0A0000002B514D545055423A70
:1011300020302C302C3000007075626C6973682090
:101140006461746120746F206120736572766572CA
:10115000210D0A0041542B514D54444953433D3015
:101160000D0A0000446973636F6E6E6563742066D8
:10117000726F6D2061206E6574776F726B210D0A3E
:1011800000000000F8B5C04CC04920001C3001F040
:101190008FF82076BE4D20206A2168548720800079
:1011A0002718C8223900280001F0C8FDFA26B60029
:1011B0003300227E21001C31280001F05CFD30004C
:1011C00001F0D2FCB3A1380002F096FA002800D159
:1011D000C2E1B14920001C3001F06AF82076217E7E
:1011E00020001C3001F09FF8AC4920001C3001F0B9
:1011F0005FF8207620206A216854C8223900280030
:1012000001F09CFD3300227E21001C31280001F0FA
:1012100032FD300001F0A8FC9EA1380002F06CFA0B
:10122000002800D19AE1D94920001C3001F040F893
:101230002076217E20001C3001F075F8D449200072
:101240001C3001F035F8207620206A216854C8222D
:101250003900280001F072FD3300227E21001C318C
:10126000280001F008FD300001F07EFC89A1380063
:1012700002F042FA002800D186E1C64920001C3065
:1012800001F016F82076217E20001C3001F04BF88A
:10129000C14920001C3001F00BF8207620206A2183
:1012A0006854C8223900280001F048FD3300227E2E
:1012B00021001C31280001F0DEFC300001F054FC5C
:1012C000B649380002F018FA00287BD0B449200053
:1012D0001C3000F0EDFF2076217E20001C3001F054
:1012E00022F8B04920001C3000F0E2FF20762020D8
:1012F0006A216854C8223900280001F01FFD33001C
:10130000227E21001C31280001F0B5FC300001F0E4
:101310002BFC60A1380002F0EFF9002800D125E194
:10132000A14920001C3000F0C3FF2076217E200060
:101330001C3000F0F8FF9D4920001C3000F0B8FF81
:10134000207620206A216854C8223900280001F044
:10135000F5FC3300227E21001C31280001F08BFCBB
:10136000934801F001FC9349380002F0C5F90028C8
:1013700000D1FDE0904920001C3000F099FF20765C
:10138000217E20001C3000F0CEFF8C4920001C3054
:1013900000F08EFF207620206A216854C822390090
:1013A000280001F0CBFC3300227E21001C312800F4
:1013B00001F061FC7E4801F0D7FB7849380002F06B
:1013C0009BF9002800D1DFE07DA1380002F094F9FC
:1013D000002807D07BA1380002F08EF9002801D048
:1013E000FFF76EFB700801F0BFFB774920001C304F
:1013F00000F05EFF2076217E20001C3000F093FF7D
:10140000724920001C3000F053FF207620206A2112
:101410006854C8223900280001F090FC3300227E75
:1014200021001C31280001F026FC300001F09CFB5B
:101430005A49380002F060F90028C3D0584920000A
:101440001C3000F035FF2076217E20001C3000F09B
:101450006AFF5F4920001C3000F02AFF2076202020
:101460006A216854C8223900280001F067FC330063
:10147000227E21001C31280001F0FDFB300001F02C
:1014800073FB04A10CE000BF301000202CA5000865
:10149000D41C00204F4B000048A5000870A5000890
:1014A000380002F029F9002853D000BF49A12000DC
:1014B0001C3000F0FDFE2076217E20001C3000F064
:1014C00032FF00BF4AA120001C3000F0F1FE207660
:1014D00020206A216854C8223900280001F02EFC1F
:1014E0003300227E21001C31280001F0C4FB30486B
:1014F00001F03AFB43A1380002F0FEF8002837D093
:1015000045A120001C3000F0D3FE2076217E200073
:101510001C3000F008FF00BF45A120001C3000F087
:10152000C7FE207620206A216854C822390028008E
:1015300001F004FC3300227E21001C31280001F060
:101540009AFB1B4801F010FB3EA1380002F0D4F8D2
:10155000002819D03DA1CFE041A10AE047A1380001
:1015600002F0CAF800280FD048A187E64FA100E09A
:1015700059A120001C3000F09BFE2076217E200027
:101580001C3000F0D0FE0020F2BD00BF7CA500089A
:1015900094A50008DCA50008FCA500084416000876
:1015A00010A6000820A60008D4150008F0150008B1
:1015B000B80B0000041600081816000830160008C2
:1015C000535000004550000060A6000884A60008A3
:1015D00098A60008436F6E6E656374696F6E207421
:1015E0006F20415753206973204F4B210D0A000093
:1015F00041542B51485454504745543D38300D0AFE
:10160000000000002B51485454504745543A2030B4
:101610002C3230300000000048545450204765748C
:1016200020697320776F726B696E67210D0A000065
:1016300041542B5148545450524541443D38300D8B
:101640000A000000434F4E4E454354004854545046
:101650002052454144206973204F4B210D0A000060
:1016600053657420636F6E746578742069642066B6
:1016700061696C6564210D0A000000002B5149412D
:1016800043543A20312C312C31000000504450207A
:10169000636F6E7465787420697320616C72656124
:1016A000647920736574210D0A000000436F6E6E2B
:1016B000656374696F6E20746F2041575320666FA5
:1016C0007220636F6E666967206973206E6F742085
:1016D0004F4B210D0A0000004854545020536572AE
:1016E000766572206973206E6F7420617661696C13
:1016F00061626C65210D0A0020001C3000F0D8FDED
:101700002076217E20001C3000F00DFE0120F2BD6D
:101710001C480168C90705D51B4981601B498160C8
:1017200000207047012070471648016801220A43D3
:10173000026000207047F2B507001400104D287CAD
:10174000012801D10220F2BD01202874104802F0C6
:10175000B3F80026010010D16E610099022F01D16B
:101760000C600AE0012F01D10C8006E0002F01D1AE
:101770000C7002E0064802F09FF82E74F2BD0000E3
:10178000D01D002004200240EFCDAB8905040302E8
:1017900050C30000F8B5040016D0250054350026CB
:1017A0006868002804D1AE602E70200002F030F985
:1017B00010206968014003D121688A68520705D565
:1017C0006968084368602E700120F2BD6868834A2A
:1017D000024002201043686081488A689207920F95
:1017E000012A02D10A68D2072AD462687D4BC02739
:1017F0003F06BA4206D05F1CBA4203D080273F069C
:10180000BA4208D10A6913400B6121680A6963680A
:1018100013430B610AE00A6913400B610168724AC5
:101820000A400260016862680A4302602168CA686F
:1018300018239A43CA602168CA68A3681343CB601F
:1018400001686A4A0A4002600168A26B52060A43B4
:10185000026020688021490582680A4002D18268BE
:10186000114381602068C168614A0A40C2602069F2
:10187000022801D1042200E000222168C868E36840
:101880001A43236A5B031343226B57001F43626BA7
:101890003A43A3699B031343E269D2031A43024309
:1018A000CA60A06AFF21C231884205D02168CA6897
:1018B000E36A03431343CB600120616A01290FD11E
:1018C000216A002905D12168CA6803041343CB604B
:1018D00006E0696820220A436A60A9680143A9609A
:1018E000216C012921680A690FD1424B13400B6119
:1018F00021680A69676CA36C3B43E76C1F4317437D
:101900000F6121680A69024303E0024002D00A69BC
:1019100082430A6121684A6907239A434A61216820
:101920004A69E36B13434B61AE60696802229143DD
:10193000084368600020F2BDF8B5040001D1012021
:10194000F2BD2700543778680221014379602000F6
:1019500000F04FF905000026280007D1200000F014
:1019600019F90500012D35D001207860012D31D005
:1019700020684168204A0A40426020482168086087
:10198000206881681E4A0A4082602068C1681D4A3A
:101990000A40C260206801691B4A0A40026120684F
:1019A00041690722914341612068016A174A0A4050
:1019B00002622168B4317F20C0430A6802400A6095
:1019C0002168B4310A6810400860200002F041F834
:1019D000BE607E603E702800F2BD0000FFFEFFFF8B
:1019E00008270140FFFFFF3FFFFFC3FFFFFFFFFD91
:1019F0001902FEFF03FCFFFF60F7FFFF9F080000D6
:101A0000FFFFFFEF00023E8302FCFF3F00F000F00B
:101A10000068006C7047F8B50400206801270821B1
:101A2000102504220368134002D04368134005D1F7
:101A300003680B4031D043680B402ED0A36D2B4080
:101A400003D1A36D8E011E43A665C368C02636016F
:101A50001E4019D1236A002B16D10368194013D0F8
:101A600081680A4009D141680C2291434160A06D10
:101A7000474901403943A16506E0A06D202101439B
:101A8000A165E06D3843E0652000FEF729FBA06901
:101A9000012802D00C202168086020688026016897
:101AA00031400BD04068304008D0A06D290301437D
:101AB000A165200002F048F92068066020680168EE
:101AC000294012D0416829400FD0616B002902D013
:101AD000C1680F4007D0E16D02220A43E26505604C
:101AE000200002F032F920680560F1BDF2B582B045
:101AF000070054373978012901D10220FEBD0121A8
:101B00003970006800248168490706D5786820216B
:101B1000014379603C700120FEBD029909684903C8
:101B2000490B00918025AD024F4E6900029A526820
:101B30004E4B9A42826A009B15D0134383620298EF
:101B40000068014006D03068A901014331600A20D5
:101B500000F077F802980068054016D030688021C0
:101B6000C903014310E09A43826202980068014071
:101B700003D030683E49014031600298006805405A
:101B800003D030683B49014031603C700020FEBD0D
:101B9000FFFEFFFFF8B504002068032182680A40B9
:101BA000012A1CD10268D20719D5102501268268A6
:101BB00005231340012B11D1826802231343836054
:101BC0002068016002F0C2F8070020688068304099
:101BD00005D002F0BBF8C01B0B28F6D301E00020B3
:101BE000F2BDA06D0543A565E06D0643E6650120E5
:101BF000F2BDF8B5040020680425816829401ED094
:101C000010268168294005D08168890702D481683F
:101C10003143816002F09AF807002068806828400C
:101C20000DD002F093F8C01B0B28F6D3A06D06432D
:101C3000A665E06D01210143E1650120F2BD0020B0
:101C4000F2BD18B504000C4800680C4901F0DDFD38
:101C500001002000484301E00098401E00900098D9
:101C60000028F9D111BD0000082701400110000033
:101C7000FFFF7FFFFFFFBFFF0000002040420F007B
:101C800038B504001CD02120205C002804D120217C
:101C90006054200001F07AFF022021216054CA2004
:101CA00021684862532021684862FF25200000F027
:101CB00089FA0028206805D045620420212160545B
:101CC000012032BD8168984A0A408260206881689C
:101CD000626823691343A2691A430A438260E06879
:101CE0002168086120680169A26812040A43026140
:101CF0002068C16880229143C1602068C16C0322C2
:101D00009143C1642068C16CE269636913430B436A
:101D1000C36420684562012021216054002032BD47
:101D2000F2B504002020205C012801D10220F2BD80
:101D3000012020216054022021216054206840218C
:101D40000025002A806815D1014001D10099CD708D
:101D50000098007800F05AFA06040098407800F0E5
:101D600055FA0002304306000098807800F04EFAE1
:101D7000304312E0014004D00098007800F051FA9E
:101D800001E00099CD70009800780004009949782E
:101D9000090201430098807808430099C9780F042C
:101DA0000743CA2021684862532021684862FF2601
:101DB000200000F007FA00281FD16C483840216845
:101DC0000860206881686A4A0A40826020688168E9
:101DD000009AD268009B1B6913430B438360206801
:101DE000C16880229143C1602068806880060DD45C
:101DF000200000F0CAF9002808D0206846620420BC
:101E000021216054202025540120F2BD2068466223
:101E1000012021216054202025540020F2BD10B55E
:101E20000C000068816A616001694904490CA16085
:101E300001684E480840010C8B069B0E2370030A74
:101E40006370A07040200140E170002A0BD120781F
:101E500000F0E7F92070607800F0E3F96070A07896
:101E600000F0DFF9A070002010BDF8B504000D00EF
:101E70002020205C012801D10220F2BD0120202178
:101E800060540220212160546878002A3ED1C106A6
:101E900003D5EF2101400A316970E87800F0B6F906
:101EA0000604687800F0B2F9000230430600A87812
:101EB00000F0ACF9304329784F030743CA2021686A
:101EC0004862532021684862FF250026200000F068
:101ED00079F9002811D127483840216848602068E6
:101EE000C16880229143C1602068806880061AD44E
:101EF000200000F04AF9002815D02068456204202F
:101F000021216054202026540120F2BD00F089F9DF
:101F1000A87800F086F9E87800046978090201439E
:101F2000A8780843C7E7F9E0BFFF8FFF10B50C00A2
:101F3000006841680F480840010CE170C104C90EF7
:101F40006170A0700004400F2070002A0BD1E0786F
:101F500000F067F9E070607800F063F96070A078D5
:101F600000F05FF9A070002010BD00007F7F7F00AF
:101F7000FFFFFBFF3FFFFF00F0B583B004000D0043
:101F80002020205C012801D10220FEBD012020215B
:101F90006054022021216054206840210027002A3B
:101FA00080681ED1014000D1EF70287800F02EF932
:101FB0000604687800F02AF9000230430600A87889
:101FC00000F024F9694608712020285C00F01EF911
:101FD000694609793143EA7812040A43000610433E
:101FE00018E0014003D0287800F01BF900E0EF7002
:101FF0002020285C00F015F928780004697809028F
:102000000143A8780843E978090401432020285CAB
:1020100000060843E96901436E690E436868A969CF
:1020200001430091CA202168486253202168486218
:10203000216880206A6A43009A428A6825D12B4B26
:1020400013408B602168CA6810405C4A0243CA6032
:1020500001F07CFE05002068C168C90706D401F0C4
:1020600075FE401B32498842F5D324E0C6610098D2
:102070002168486420688168802252000A43826097
:10208000206881688022520124E0194B13408B6044
:102090002168CA681040594A0243CA6001F056FEDE
:1020A00005002068C168890706D401F04FFE401B77
:1020B0001F498842F5D31DE00662009821688864B4
:1020C00020688168802292000A43826020688168CB
:1020D000802292010A4382608020800248490A6877
:1020E00002430A608A68104388600DE0FFFEFFFF2C
:1020F000FFFDFFFFFF20216848620320212160547B
:10210000202027540320FEBDFF20216848620120C3
:1021100021216054202027540020FEBD2068456204
:10212000012021216054202026540020F2BD00000F
:10213000E903000038B50400206880258168C904DF
:102140000BD5C068C00508D5200001F005FE206849
:10215000C1682940194A0A43C2602068816889041D
:102160000BD5C068800508D5200001F0F6FD206879
:10217000C1680D4021492943C16080208002214966
:10218000086001202121605431BD38B50400206869
:10219000C168A0229143C16001F0D8FD050020680C
:1021A000C068800607D401F0D1FD401B0449884275
:1021B000F5D3032032BD002032BD00007FFEFFFFBB
:1021C000E903000070B5040020684025C16829407B
:1021D00011D10021C943C16001F0B8FD060020689B
:1021E000C068284007D101F0B1FD801B0649884234
:1021F000F5D3032070BD002070BD00007FFDFFFF00
:102200000004014014040140E9030000002101E042
:10221000491C0A38C0B20A28FAD209010843C0B2E0
:10222000704701090A2251430007000F0818C0B285
:102230007047F8B401684218436859085118009172
:102240008168DB0701D54B46C918009B9A4202D131
:102250000C30F2BC70471378521C032403261E4036
:1022600002D11678F61C521C1D090F2D07D11578C6
:102270000F35521C03E01778521C0F70491C761E54
:10228000F9D1002DE1D01678521C9B081C40032C7C
:1022900001D11478521C2302F3185C420B19AD1CB7
:1022A000D3D01C785B1C0C70491C6D1ECDD0F8E798
:1022B0000CB41CB5040004A80190009401AB0A0002
:1022C0006946084878441C3001F048FD0021009A16
:1022D0001170002801D40098001B02B0019910BCB5
:1022E00003B008472B2D000038B5194D194C0022BA
:1022F000FA2080002118280002F085FF2100280024
:1023000002F08AFF002032BD002070470020704795
:1023100010B50F4C0100200002F07EFF200002F0FB
:102320009CFF002010BD10B5094C86229200A258D7
:1023300085239B00D258002A01D0012010BD0A003D
:102340000100200002F05FFF200002F06CFF10BDD2
:10235000441500206008002030B59DB0AB4CAC485F
:1023600001682140C20C0A43026000F017FCB94822
:1023700001680C40046026200E90DA301090012095
:102380001190102112911490022018900024199499
:102390001A94C02000041B90AFA50EA802F074FF91
:1023A000002803D02F21280003F0B8FB0F20009055
:1023B000032001900294039404940021684603F0E2
:1023C00081F9002803D03D21280003F0A7FB6520F8
:1023D00005900794099480204002069080020D9099
:1023E00005A803F09DFB002803D04821280003F036
:1023F00095FB002280214904002003F019FA03F024
:102400008BFAFA21890001F000FA03F06BFD042039
:1024100003F07CFD002200210020C04303F050FDAA
:102420001DB030BD7CB5A74CA748206000202064BB
:10243000C02109066160A060E06301252561E060BC
:1024400020626062E062FF21C231A1622063042148
:1024500061616063A061A063E06100BF7EA62000AF
:10246000FFF798F9002803D07421300003F056FBE1
:1024700000952803019069462000FFF737FB0028EC
:1024800003D07D21300003F049FB9048009069465D
:102490002000FFF72BFB002803D08521300003F03C
:1024A0003DFB8B48009069462000FFF71FFB00288A
:1024B00003D08D21300003F031FBBC480090694609
:1024C0002000FFF713FB002803D09521300003F014
:1024D00025FB73BD80B5B648B6490160E1214902CC
:1024E000416000218160C16001610C224261920162
:1024F00082610162416200F06BFB002803D0A921D8
:1025000055A003F00BFB01BDF0B591B0AA4DAB484F
:10251000286000246C60AC60A948E8602C616C61A4
:10252000AC61EC612800FFF7ABFB002803D0C121B0
:1025300049A003F0F3FA06270BA8077044708470D3
:102540000E940F9401220BA92800FFF7E9FB002845
:1025500003D0CD2140A003F0E1FA012668460670C1
:1025600046708670C470012269462800FFF77DFC22
:10257000002804D0D72100BF37A003F0CFFA684667
:10258000077101A94E708C7002940494059406940E
:102590000794B007089001A820214654C8000A906B
:1025A000012201A92800FFF7E7FC002803D0E92158
:1025B00029A003F0B3FA6846077170020A9001225D
:1025C00001A92800FFF7D8FC002804D0F32100BFA0
:1025D00021A003F0A3FA11B0F0BD000080B5764849
:1025E00076490160002141608160754AC2600161E5
:1025F00041618161C161FFF743FB002805D0FF21E4
:10260000083100BF14A003F089FA01BDFFE7FFFF06
:102610000070004080B56B486B4901608221490021
:10262000416000218160C1600161416180229200AE
:102630008261C1610162416281620721C16200F071
:10264000CDF8002805D09021490000BF02A003F07A
:1026500065FA01BD50100240443A5C50726F6A65E1
:102660006374735C456D62656464656420496F548E
:102670005C576F726B5C426F617264205465737457
:10268000696E675C50726F64756374696F6E5C32FB
:102690003031395F325F31335F737065635F72650C
:1026A00063656976655F49545F6D6F6469666965E6
:1026B000645C5372635C6465766963655F696E69C7
:1026C000742E63008C1B00200024014002000004D3
:1026D00004000008F0B587B004213C4802680A43B2
:1026E0000260026811400591059901260168314395
:1026F0000160016831400591059902240168214378
:10270000016000682040059005980022DC21090145
:102710002F4800F0DDFFE027BF00002239002D48E0
:1027200000F0D6FF2C4800900025019502956946DF
:10273000274800F077FE1020009001950295694629
:10274000A020C00500F06EFE792000900195029552
:102750006946204800F066FEE00200900194029570
:1027600003950620049069461A4800F05BFEDC20C1
:10277000000100900196029503956946144800F007
:1027800051FEE0010090019402950395049569467D
:10279000A020C00500F046FE009701960295039523
:1027A00069460C4800F03EFE07B0F0BD0800000C82
:1027B000D41C002000480040AC1D00200028004030
:1027C000FF7F0000EC1B0020003001402C10024075
:1027D00000080050000400502030000070B50400D4
:1027E00001D1012070BD25005035002668780028F1
:1027F00003D12E70200001F0DEF9022068702068FD
:1028000001684022914301606068A1680143E0686B
:1028100008432169014360690843A169D20011405E
:102820000143E0690843216A0143A06A0843216823
:102830000860A069000C04210840616A0143206817
:102840004160E06A216808612068C169654A0A4000
:10285000C2616E6001206870002070BD10B5002854
:1028600001D1012010BD04005034022161700168C3
:102870000A6840239A430A6001F0E6F9002060608C
:102880006070207010BDF8B582B00400260050368C
:102890007078012800D0A2E0002901D0100001D1F9
:1028A0000120FEBD3078012800D198E00120307071
:1028B00012207070002575602163A286E286E564AF
:1028C000A564A563A587E587A06A80218901884260
:1028D0000AD120680168444A0A4002602068016801
:1028E000802292010A430260A06880210902884286
:1028F00005D1206801688022D2010A430260206865
:10290000402102680A4002D1026811430160802719
:102910007F01E068002860681AD100280BD0E08EA3
:10292000012811D107E0029B00220221200000F0C3
:10293000B9F8002826D1206B411C2163007821685A
:10294000C860E08E401EE086E08E0028EBD11BE0E0
:10295000002802D0E08E012809D1206B0088216870
:10296000C860206B801C2063E08E401EE086E08EF5
:10297000002809D0029B00220221200000F092F8DA
:102980000028EAD00320FEBDA06A7900884203D166
:10299000206801680F4307602027029B0022022164
:1029A000200000F07FF8002803D0706807437760AC
:1029B000E8E7029B01228021200000F073F8002844
:1029C000F3D1A068002805D12068C1680091806813
:1029D000009000980120707035700020FEBD02202C
:1029E000FEBD0000FFF7FFFFFFDFFFFF70B582B005
:1029F0000368012140225C68144008D09C680C40A8
:102A000005D09C68144002D1816C884773BD0224B4
:102A10005D682D0605D59D68254002D0C16C8847AC
:102A200073BD20255E682E403BD09E68F60605D516
:102A3000466D344344651024E4439C6003689C68FD
:102A4000254008D0446D0C4344659C6800941C6884
:102A500094431C60009B03689C6822400CD0512268
:102A6000825C122A08D0426D042414434465DA685B
:102A700000929A680092009A9A68D20506D5426D33
:102A80000824144344659A680092009A426D002A13
:102A900007D05A68E024A2435A605122815403F0BF
:102AA00050FA73BDFFB581B001F050F900902D4F81
:102AB000FC434025ED43E026F6436846007B0028B2
:102AC00016D10198006880680299014002988142FD
:102AD00044D004980021C9438842F2D000281DD078
:102AE00001F034F90099401A04998142E9D215E0C5
:102AF00001980068806802990140029881422DD1B6
:102B000004980021C9438842F2D0002806D001F081
:102B10001DF90099401A04998142E9D20198006890
:102B200041680E4046600198006801680D400560EC
:102B30000198806AA04209D10198006801680F409D
:102B400007600198006801680C43046001985030E8
:102B50000121417000210170032000E0002005B038
:102B6000F0BD0000FFDFFFFF11B581B001F0EEF80E
:102B7000040001F0EBF8001B01998842F9D313BD62
:102B800005480168020D0A43026070470248016867
:102B9000420D0A4302607047007000400A48016815
:102BA000820D0DE00848016802220A4302600748CE
:102BB000016804220A43026030BF70470168102296
:102BC0000A430260704700000070004010ED00E012
:102BD00038B5040001D1012032BD25006835687880
:102BE000002803D12870200000F048FF24206870DE
:102BF00020680168012291430160606A002802D0C8
:102C0000200000F0CBFA200000F0A8F9012811D034
:102C100020684168084A0A404260206881682A2288
:102C2000914381602068016801220A43026020000C
:102C300000F01AFB32BD0000FFB7FFFF38B50028D7
:102C400001D1012032BD0400683424216170016883
:102C50000A6801239A430A60002501680D60016833
:102C60004D6001688D6000F065FF65600020607058
:102C7000A070257032BDFCB583B006000C00350095
:102C80005035687E202856D1002C0BD0002A09D060
:102C9000B06880214901884206D13069002803D1FB
:102CA000E00701D5012047E0287E012843D001201C
:102CB00028760027EF612120687601F047F801901F
:102CC00068468089288068468089688005E0208879
:102CD000C005C00D31688862A41C6888002819D01E
:102CE0006888401E688004980090019B0022802123
:102CF000300000F0EDFA002816D1B06880214901BB
:102D0000884202D130690028E1D020783168886299
:102D1000641CE2E704980090019B002240213000EF
:102D200000F0D6FA002801D0032005E020206876C4
:102D30002F76002000E0022005B0F0BD70B5030042
:102D400058339C7C202C41D100290BD0140009D091
:102D5000856880267601B54206D10469002C03D12E
:102D6000CC0701D5012070BD1C7C012C2ED0012484
:102D70001C7441651A805A80FF21B54204D1026952
:102D8000002A11D112490FE07F22002D03D10569DD
:102D9000002D06D108E021078D4206D101690029E6
:102DA00001D19A8001E03F219980002159612222BE
:102DB0009A74197401688A6814438C600068016809
:102DC000902252000A430260002070BD022070BDB4
:102DD000FF010000F8B504002368D86919680607E8
:102DE000360F07D1820605D58A0603D5200000F0EC
:102DF000D3FAF1BD9A6825006435002E62D0012611
:102E0000324203D190277F000F405BD0C70705D522
:102E1000CF0503D51E62AB681E43AE6002230426B5
:102E2000870706D5D70704D527683B62AF683743C5
:102E3000AF60470706D5D70704D527683E62AE685E
:102E40003343AB600826030708D58B0601D4D207AD
:102E500004D522681662AA683243AA60AA68002ACA
:102E600079D0800604D5880602D5200000F094FAB7
:102E7000A868064003D12068806840061CD5200061
:102E800000F05CFA20688168490611D5816840220B
:102E900091438160286800280AD02F4981632868FF
:102EA00003F0B6F9002856D02868816B8847F1BD39
:102EB000200003F047FBF1BD200003F043FB00209E
:102EC000A860F1BD2026C70209D5520207D5F0033C
:102ED00018626E71AE71200003F036FBF1BD020680
:102EE0002DD50A062BD56879212834D15220205AB5
:102EF000002809D11868802188431860206801687B
:102F000040220A430260F1BDA068F10188420BD162
:102F10002069002808D1E06C0088C005C00D9862C7
:102F2000E06C801CE06404E0E06C411CE16400782B
:102F300098625220205A401E52216052F1BD400634
:102F400009D5480607D518684021884318606E7176
:102F5000200003F0FAFAF1BD85330008F0B583B024
:102F6000040010250026002721680868834A0240D3
:102F7000A06810432269024360691043E26902437A
:102F80000A6048687E4A0240E06810434860A069D1
:102F90007C4A914202D00200206A10438A687A4B30
:102FA000134018438860794881420BD17848C06C3F
:102FB0008007800F04D0022812D02FD3032829E0E5
:102FC00001252EE0734881420CD17148C06C0C2160
:102FD000014021D0042921D0082901D00C2919E071
:102FE00002251EE06C48814216D09E48814213D0D3
:102FF0006448814215D16648C06CC0210901014076
:103000000AD0A801814209D040008142E8D0C02006
:103010000001814204D004E0002502E0042500E024
:103020000825022002F04EFE216801918022120242
:10303000544B994232D1002D06D0022D11D0042DCF
:1030400017D0082D18D094E002F069FC00285FD05A
:10305000656869004919884202D3290381420DD26B
:1030600087E04B480068C00601D59848F0E7BB48A8
:10307000EEE702F01BFCE9E71000E9E7030E0202AD
:1030800068080021801859412A00002303F05EFAE5
:10309000A8494118A84A91426BD25FE0E169914288
:1030A00037D1002D08D0012D0AD0022D0BD0042DD0
:1030B00013D0082D1AD021E0616840004A0818E0BA
:1030C00002F03AFC0BE061684808314A1268D20607
:1030D00001D5A34A0DE0A34A0BE002F0E7FB6168CB
:1030E0000091400049084018009903E061684808D1
:1030F0005200801800F089FB060000E001279A4981
:1031000031403006400E4007400F01432068C16047
:1031100030E0002D08D0012D09D0022D0AD0042D59
:1031200012D0082D1CD024E002F0F9FB0EE002F0D2
:1031300003FC0BE061684808154A1268D20601D505
:10314000624A0FE0854A0DE002F0B0FB6168009131
:1031500049084018009900F058FB80B2216806E049
:1031600061684808801800F050FB80B20199C8607F
:1031700000E001273800FEBD00000000F369FFEF0A
:10318000FFCFFFFF00480040FFF4FFFF0038014081
:103190000010024000440040004C00402421415CEB
:1031A000C90706D501684A68704B1340826A1A4302
:1031B0004A602421415C890706D501684A686C4B46
:1031C0001340C26A1A434A602421415C490706D56C
:1031D00001684A68674B1340026B1A434A60242116
:1031E000415C090706D501684A68634B1340426B8E
:1031F0001A434A602421415CC90606D501688A68E1
:103200005E4B1340826B1A438A602421415C89061D
:1032100006D501688A685A4B1340C26B1A438A600C
:103220002421415C490611D501684A68774B134057
:10323000026C1A434A60026C80235B039A4205D1F8
:103240004A68734B1340426C1A434A602421415C24
:10325000090606D501684A686E4B1340806C184316
:103260004860704700500040F8B504000025683001
:10327000456000F06BFD0600674F2068006800079E
:1032800009D500973300002280218903200000F037
:103290001FF800280DD12068006840070BD5009763
:1032A000330000228021C903200000F011F800281B
:1032B00001D00320F2BD2020210068314870210098
:1032C00068318870682025540020F2BD00093D0057
:1032D000FEB504000F000025089E2068C069384034
:1032E000B84201D1012000E00020694609798842F6
:1032F0001DD10020C0438642EFD0002E05D000F043
:1033000025FD0299401A8642E7D220680168434AA7
:103310000A40026020688168012291438160200098
:10332000683020214170817005700320FEBD0020AF
:10333000FEBD000000FDFFFF00FD0F0001680A68F0
:10334000374B13400B6001688A6801239A438A60F7
:1033500020216A2281547047000000000024F400FC
:1033600000127A000048E801F0FF0000FFFFFDFFB7
:10337000FFFFFEFFFFFFFBFFFF7FFFFFFFEFFFFFF2
:10338000FFDFFFFF80B5806A0100523100220A8111
:103390000A8003F0D7F801BD38B501005A314A88D8
:1033A00003680C7C222C29D15B6A846880256D011E
:1033B000AC4209D10469002C06D11A40436D1A8031
:1033C000426D921C426504E0446D651C45651A40DF
:1033D00022700A88521E0A8012040DD102681368F6
:1033E0000F4C1C401460026893680124A34393604F
:1033F00020220A7403F0DFF8002032BD986908210A
:1034000001439961022032BD00000000FFFFEFFF81
:10341000FFFF9FFFFFFFF7FFFFFFFF015FFEFFFFC3
:10342000DFFEFFFFFFB5002329E006256F46BF78CA
:10343000BD403543039E3560A14D2E68E5432E40C7
:103440004F68FF0300D526439D4F3E607E682E40A7
:103450004F68BF0300D52643994F7E60BE682E405B
:103460004F68FF0200D52643954FBE60FE68354089
:103470004E68B60201D52C432500FD605B1C0D682B
:103480002C00DC4000D194E001249C4002942C40AC
:10349000F4D09D006E4675704D68022D01D0122D3E
:1034A0001AD1DD08AD0045192E6A01966E4677786F
:1034B0001C263E406F463E70019FBC466E463778E4
:1034C0000F26BE406746B743BC460F696E46367846
:1034D000B740664637432F625E000327B740FD437F
:1034E00001954D68012D05D0022D03D0112D01D07D
:1034F000122D11D18768019D3D40CF68B7402F4301
:1035000087604768029DAF43BC464F68FD06ED0FDC
:103510009D4067463D4345600768019D3D400F79EA
:10352000BF07BF0FB7402F430760C768019D3D40ED
:103530008F68BC4637006646BE402E43C6604D6865
:10354000ED009BD5654D2D6801262E43634D2E6001
:10355000634D9E08B600AD1903952E686D466F78D1
:103560000C253D406F46BD706D46AF780F25BD40C0
:10357000AE43A025ED05A84201D1002556E7594DDF
:10358000A84201D1012551E7574DA84201D102259A
:103590004CE7564DA84201D1032547E7544DA842B8
:1035A00001D1042542E7534DA84200D03DE705254F
:1035B0003CE7FFBDE2B585B001000025404A1AE0B6
:1035C0000627B4466E467678B740BC4512D1019EB8
:1035D0003668864301980660049EF04316680640EC
:1035E0001660566806405660966806409660D66833
:1035F0003040D0606D1C0598E8405ED00120A840A6
:1036000003900598039E0640049604980028F1D084
:1036100003206E00B04002900868029E06430E60D0
:10362000E80880000E18A8006F463870376ABC465C
:10363000684600781C2707400F20B840674687433C
:103640003762029EF0438E6806408E604E68039F8C
:10365000BE434E60CE683040C8602148AE08B60018
:10366000801901900668684607780C2038406F463C
:103670007870684647780F20B8400640A027FF05BD
:10368000B94201D100279CE7164FB94201D1012769
:1036900097E7154FB94201D1022792E7134FB9427C
:1036A00001D103278DE7124FB94201D1042788E7E2
:1036B000104FB94284D1052783E706B0E0BD000072
:1036C000000401400069084000D00120C0B27047EA
:1036D000002A01D081617047816270473410024036
:1036E000080001400004005000080050000C005089
:1036F00000100050001C005070B40A78130008D16C
:1037000014E05B1C1E78A6420AD001E0002C0CD00D
:10371000401C04789442F9D1002806D003000D0023
:103720006D1C2C782600ECD100E0002070BC7047A6
:1037300070B505000E00114802F03EFF0400002D98
:1037400009D03100280002F038FF2D182878002811
:1037500006D1206070BD2568002DF2D1002070BD1B
:103760003100280002F03BFF28180178002902D020
:1037700000210170401C2060280070BD580100200D
:103780000DB400B582B004A800906B460A0003A9EE
:10379000034878440A3002F057FF029906B0084700
:1037A000E1710000010000E0491C0A78002AFBD109
:1037B000081A704738B504000B00110003E00270CE
:1037C0005B1C401C491E002904D01A781500F6D154
:1037D00003F0F2FD200032BDF446002804D4494233
:1037E00000F013F8404260474042002905D45FD002
:1037F00000F00BF8404249426047494200F005F8AA
:103800004942604703460B43E6D40022030A8B4239
:103810000BD203098B4219D243088B422ED2411A94
:1038200000D20146524110467047FF2209023FD0A4
:1038300012068B4205D3121209028B4201D31212D7
:10384000090203098B4219D300E0090AC3098B421C
:1038500001D3CB01C01A524183098B4201D38B01A2
:10386000C01A524143098B4201D34B01C01A524145
:1038700003098B4201D30B01C01A5241C3088B428A
:1038800001D3CB00C01A524183088B4201D38B0075
:10389000C01A524143088B4201D34B00C01A524117
:1038A000884200D3401A5241CFD201461046704799
:1038B00008B503F085FD08BD70B5050000F046FAB7
:1038C0000600434C2068C0070CD50020C043854249
:1038D000F8D0002D04D000F039FA801B8542F1D2D7
:1038E000032070BD02202168014000D020602068C4
:1038F000C00511D4206880050ED4206840050BD483
:103900002068000508D42068800405D4206880035E
:1039100002D42068C00303D500F005F8012070BD73
:10392000002070BD000030B50022284880235B00D5
:1039300027490C681C4004D04269022414434461A6
:103940001A004B0D0C681C4006D044690125254324
:10395000456114001A0022430B0D0C681C4006D070
:10396000446908252543456114001A002243CB0C05
:103970000C681C4006D044690425254345611400A9
:103980001A0022439B000C681C4006D04469102595
:103990002543456114001A0022430B689B0306D59A
:1039A000202344691C4344611400202222438023C5
:1039B0005B020C681C4006D04469402525434561E4
:1039C00010001A0002430A6030BD0000D01D002024
:1039D0001820024080B5AF48016801220A43026006
:1039E0004168802252050A434260002200210420DF
:1039F000C04302F065FA002200210120C04302F01A
:103A00005FFA002200210020C04302F059FA01BDF4
:103A100000688C49884200D0704700B585B09D4849
:103A20000168420D0A4302600F20009003200190BC
:103A3000002002906946A020C005FFF7F3FC002299
:103A400000210C2002F03CFA0C2002F03DFA05B0F7
:103A500000BD00687B49884200D0704780B58D4822
:103A600001688D4A0A4002600F21A020C005FFF7BF
:103A7000A1FD0C2002F02FFA01BD0000F1B586B0C7
:103A8000016884480024042702260325834A9142C2
:103A90003CD1416872040A43426000950196029449
:103AA00003950620049069467D48FFF7BBFC7D48DE
:103AB0000090019602940395049769467A48FFF7AF
:103AC000B1FC7A4D7A48286005206860AC60EC60F3
:103AD000802028616C61AC612020E8612C622800A4
:103AE00002F030FA002804D0BD2100BF79A002F016
:103AF00015F8069845660698A862002200211D2048
:103B000002F0DEF91D2002F0DFF911E0694A91426E
:103B10000ED1016872030A430260680200900196A8
:103B20000294039504976946A020C005FFF77AFC2C
:103B300007B0F0BD10B5040021685648574A9142BD
:103B400010D141685C4A0A40426003215448FFF7A3
:103B500031FD54495448FFF72DFD606E02F068FABC
:103B60001D2010E0534A91420FD10168534A0A4088
:103B70000260C021C900A020C005FFF71BFD606ED8
:103B800002F056FA1B2002F0A6F910BD00684C495D
:103B9000884200D0704780B54A4801688022D2022E
:103BA0000A43026000220021022002F089F902206B
:103BB00002F08AF901BD70B586B0016803260024C1
:103BC00002253448404A914215D10168820C0A43CB
:103BD0000260E020009001950294039604946946E7
:103BE000A020C005FFF71EFC00220021192002F0D2
:103BF00067F9192021E0354A914220D14168120C21
:103C00000A4342600C2000900195029403960495AB
:103C100069462348FFF706FC68020090019502946C
:103C200003960520049069461F48FFF7FBFB00221E
:103C300000211A2002F044F91A2002F045F906B0DA
:103C400070BD00000024014080B5006811491E4A83
:103C500090420AD108681E4A02400A60E021A02072
:103C6000C005FFF7A7FC192010E0184A90420FD1B9
:103C70004868124A02404A600C210948FFF79AFC42
:103C80008021C9000848FFF795FC1A2002F023F9AB
:103C900001BD000034100240FFFDFFFF004800405E
:103CA000000800500220000000040050441D0020C5
:103CB0003000024000380140FFFFFBFFFFBFFFFF65
:103CC0000028004050100240003001400038004001
:103CD000FFEFFFFF443A5C50726F6A656374735C78
:103CE000456D62656464656420496F545C576F720A
:103CF0006B5C426F6172642054657374696E675CBB
:103D000050726F64756374696F6E5C323031395F05
:103D1000325F31335F737065635F726563656976C7
:103D2000655F49545F6D6F6469666965645C537271
:103D3000635C73746D33326C3078785F68616C5F8C
:103D40006D73702E63000000704770470148006873
:103D5000704700BF001E002070477047F1B5A4B047
:103D60000E0014001D004A487844FF30253003C877
:103D700022AA03C2049600200D9001E000982418A6
:103D800000206946C88022AB0022D243210001A84E
:103D9000801C03F016FB0090012805DA2078411EF4
:103DA0008941C943C90F00916846C0882528009FF2
:103DB00000D17F1E012F0EDB260031780498249A53
:103DC00090470490002800D107E10D98401C0D9009
:103DD000761C7F1EF1D16846C088252807D10020B7
:103DE0000790089009900A900B900C9008E06846A4
:103DF000C0880028C2D10D98F1E0010001200843DD
:103E0000641C21782029F8D023290ED02B2904D036
:103E10002D2907D030290BD00DE0010002200843E6
:103E200080B2EDE701000420F9E701000820F6E781
:103E300001001020F3E72A290FD1296829600A68B8
:103E4000091D29600F92002A05D551420F910100EA
:103E50000420084380B2641C12E000210F910AE0A4
:103E60000F9A7F4B9A4205D093009A18520051182E
:103E700030390F91641C21780A00303A0A2AEFD3B6
:103E800021782E2906D00021C9430E9121E000BFE0
:103E9000A06A0000641C21782A2907D129682960BA
:103EA0000A68091D29600E92641C12E000210E911F
:103EB0000AE00E9A6A4B9A4205D093009A18520073
:103EC000511830390E91641C21780A00303A0A2AC0
:103ED000EFD302A9088726783100044878440C30D3
:103EE00003F07DFA002803D0641C02E04C6A000055
:103EF000002602A83A214654405C682804D1217863
:103F0000682901D1622005E06C2807D120786C284F
:103F100004D1712002A93A228854641C12A8069088
:103F20002678641C300025382AD01C3800D1E0E007
:103F3000001F022800D8DCE0133800D1FFE0093868
:103F400000D1D6E0801E00D168E1401E00D140E1E2
:103F5000401E022800D8CCE0001F00D139E1401FEC
:103F600000D197E0401E00D1E9E0401E39D0C01ECC
:103F70000BD0801E00D1E2E0C01E00D1DFE070E176
:103F8000252012A90870012075E102A83A21405CA1
:103F90006C282868286016D00668001D28600596E1
:103FA0000E9F002F03D53000FFF7FCFB09E03A001D
:103FB0000021300003F01DFA002801D0801B00E032
:103FC0003800089058E10268001D286002A9249872
:103FD00000F032FA002800D44EE10020C04325B0A2
:103FE000F0BD286828600268001D28600020C043DA
:103FF0000021104002AA03C212A80590069B3C268D
:1040000002A803C8002904D1002802D10E9A002A70
:1040100014D0761E00960207120F3032D2B23A2A1E
:1040200000DB27329A5500090A071043090901D11C
:10403000002803D0059A9F19BA42EAD33C20801B7E
:104040000890991905910E9988420DDA081A0A907C
:1040500002A8008F0349014002A801870CE100BFBC
:10406000FFFFFF7FEFFF0000002900D404E102A959
:104070003822895C14220A40102A00D0FCE00F99F3
:10408000079A891A0A9A891A0E1A012E00DAF3E0A1
:104090000A96F1E002A83A21405C622819D068280B
:1040A00006D06A280CD06C281BD0712808D018E0E4
:1040B000286828600168001D28600D980880DBE0F2
:1040C000286828600268001D28600D98C11703C287
:1040D000D2E0286828600168001D28600D980870EB
:1040E000CAE0286828600168001D28600D980860F3
:1040F000C2E02A68D21D072082432A6003CA2A60D0
:1041000002AA03C2002902D507982D210AE002A8BD
:10411000008F810702D507982B2103E0C00705D542
:104120000798202112AA1154401C079012A8079941
:1041300040180590310002A800F0A8FB9CE002A8FE
:104140003A21405C6C280BD0712801D06A2807D135
:104150002A68D21D072082432A6003CA2A6005E02C
:10416000296829600868091D2960002102AA03C284
:1041700002A83A21405C682803D102A803C880B293
:104180000BE0622803D102A803C8C0B205E074287E
:1041900001D07A2804D102A803C8002102AA03C2D0
:1041A00002A83821405C00072FD502A803C80029C7
:1041B00001D1002829D020203043782825D1079824
:1041C000302112AA1154401C411C079112A90E540F
:1041D0001BE0290002A83A22805C00F0F8F802AA4D
:1041E00003C202A8002902DA07982D2109E0008FF6
:1041F000810702D507982B2103E0C00705D5079852
:10420000202112AA1154401C079012A807994018A7
:104210000590310002A800F0A1FA2DE002A83A2191
:10422000405C6C2809D0012007902868286001684C
:10423000001D286012A801701EE02868286001682F
:10424000001D286068460180002069464880C04300
:104250000E906A4602A9249800F0EEF800280BD5CB
:10426000BBE6252012A9087001200790300003D07A
:1042700012A84670022007900F980799401A0A99D1
:10428000401A0899401A0B99401A0999401A0C993A
:10429000401A009002A83821405C400711D4202029
:1042A00069460871009801280BDB009E012301AAD2
:1042B00002A9249800F093FE002800D08DE6761E17
:1042C000F4D1079F12AE002F0DD031780498249AB4
:1042D00090470490002800D17FE60D98401C0D9077
:1042E000761C7F1EF1D13020694608710A9E012E8E
:1042F0000ADB012301AA02A9249800F070FE00281D
:1043000000D06AE6761EF4D1059E089F002F0DD0DE
:1043100031780498249A90470490002800D15CE6F4
:104320000D98401C0D90761C7F1EF1D130206946FF
:1043300008710B9E012E0ADB012301AA02A9249811
:1043400000F04DFE002800D047E6761EF4D1059817
:1043500008994618099F002F0DD031780498249AA7
:1043600090470490002800D137E60D98401C0D902E
:10437000761C7F1EF1D13020694608710C9E012EFB
:104380000ADB012301AA02A9249800F028FE0028D4
:1043900000D022E6761EF4D102A83821405C400706
:1043A00000D4EDE42020694608710098012800DA65
:1043B000E6E4009E012301AA02A9249800F00FFE62
:1043C000002800D009E6761E00D1D9E4F2E70A0001
:1043D000622822D0682819D06A2808D06C2823D0F7
:1043E000712804D074281FD07A2808D01CE01368E4
:1043F000DB1D07208343136003CB136070471168F4
:1044000011600868091D1160002170471168116072
:104410000868091D116000B20BE01168116008689E
:10442000091D116040B204E0116811600868091D9F
:104430001160C11770470000F4B59AB007000C0076
:10444000206B002800D50E48039002F0DEFF616B60
:104450000818069009487844223003C807AA03C206
:104460003820205C400702D4069841280AD209A8C7
:104470000290402006900020059012E0C4640000E5
:10448000FFFFFF7F02F0C6FF02900028F3D100205B
:10449000C04361E11A98801C1A9003980199401A50
:1044A00003900398012800DAD0E007AA1A9801883F
:1044B00000A8401C03F00AF80190002800D5E2E0B3
:1044C0001A980088002804D10198401E019000D558
:1044D000D9E003980199884200DAB7E0606906994B
:1044E000019A8218914200D39FE00021616341420A
:1044F000206A081AA169401A616A401AE169401AE3
:10450000A16A401A04903820205C400711D4202072
:1045100069460870049801280BDB049D01236A4654
:104520002100380000F05BFD002800D0ABE06D1EDC
:10453000F4D16669029D002E0CD02978A068B84796
:10454000A060002800D19EE0E06A401CE0626D1C83
:10455000761EF2D1302069460870256A012D0ADBEB
:1045600001236A462100380000F039FD002800D000
:1045700089E06D1EF4D1E568A669002E0BD029787C
:10458000A068B847A06000287DD0E06A401CE062C7
:104590006D1C761EF3D1302069460870656A012DC6
:1045A00009DB01236A462100380000F018FD0028CD
:1045B00069D16D1EF5D1E068A1694518E669002E44
:1045C0000BD02978A068B847A06000285BD0E06ACB
:1045D000401CE0626D1C761EF3D1302069460870E5
:1045E000A56A012D09DB01236A462100380000F08D
:1045F000F6FC002847D16D1EF5D13820205C40071D
:1046000010D5202069460870049801280ADB049D13
:1046100001236A462100380000F0E1FC002832D175
:104620006D1EF5D1002005906061019A00A9491C1A
:1046300002986369C01802F055FF6069019940183B
:1046400060611A980088002800D023E705980028A8
:104650007BD1606B6169401A216A401AA169401AD6
:10466000616A401AE169401AA16A461A3820205C42
:10467000400711D4012E0FDB35002021A068B84778
:10468000A060002803D10020C04305905DE0E06AEF
:10469000401CE0626D1EF0D16369029A210038006F
:1046A00000F09DFC0028EED1256A012D0ADB3021A7
:1046B000A068B847A0600028E5D0E06A401CE0622E
:1046C0006D1EF4D1A369E2682100380000F087FC78
:1046D0000028D8D1656A012D0ADB3021A068B847CF
:1046E000A0600028CFD0E06A401CE0626D1EF4D1CB
:1046F000E369E068A16942182100380000F06FFC0E
:104700000028C0D1A56A012D0ADB3021A068B84776
:10471000A0600028B7D0E06A401CE0626D1EF4D1B2
:104720003820205C40070DD5012E0BDB3500202101
:10473000A068B847A0600028A5D0E06A401CE062ED
:104740006D1EF4D1002060616063029809A988425F
:1047500001D002F0F5FE05981BB0F0BDF3B583B0B3
:10476000006900906846027C6F2A01D1082406E0A7
:1047700020211143782901D00A2400E010243C258F
:10478000039803C806000F00642A01D0692A07D1E4
:10479000002905DA00200021801BB94106000F0026
:1047A000002F10D1002E0ED10398006B00280AD1E3
:1047B000082C3AD103983821405C000735D53B25B9
:1047C0003020009930E06D1E019530003900220044
:1047D000E31701F0BBFE3032D2B23A2A03DB68465F
:1047E000007C5138121800984255300039002200E0
:1047F000E31701F0ABFE06000F0001D1002E05D03B
:104800000398C068009949198842DCD3082C0CD160
:1048100003983821405C000707D50098405D302898
:1048200003D06D1E3020009948553C20401B039951
:10483000886100994919039AD1600399096B8842EC
:1048400009DA081A039908620398008F0E4901409B
:104850000398018715E0002913D503993822895C54
:1048600014220A40102A0CD10399496B039A526909
:10487000891A039A126A891A0D1A012D01DB03980D
:10488000056205B0F0BD0000EFFF0000F3B591B088
:1048900006AA03C802AB03C312A800782021014373
:1048A000009161290BD01198006B002801D50620DA
:1048B00003E004D1672902D10120119908631198FE
:1048C00040684100490DA64B994225D1000310D103
:1048D0001198006800280CD103201199886112A852
:1048E000007861381A283AD31F4878447A3000900B
:1048F0000BE003201199886112A8007861381A280A
:1049000029D31A4878446430009003220099119802
:10491000C06802F0E7FDE9E1012919DB914B034092
:1049200091481843119B586090480D1A0026F64391
:104930000098612827D11198C06830210170811C2E
:10494000119BD96012A90978612915D1782114E049
:1049500000260025ECE7064878441430D4E70548E3
:1049600078441030C3E700BFEC5F0000E05F000058
:10497000D85F0000DC5F0000582141701198406949
:10498000801C11994861002E03D10024684686805E
:10499000A3E10098612800D09EE01198046B002CE0
:1049A00001D5212400E0641C24B2601C0090119801
:1049B000C0C802A803C80022002302F005FE02D2EC
:1049C00080200006474002A8C0C0281F6946888092
:1049D00000260E7606A8471C0098012835DB02A8A1
:1049E00003C8002280235B0302F007FE2DD81C21A0
:1049F00002A802F01BFE02A803C802F057FE050041
:104A00000098C01F009001280ADB280002F078FE01
:104A100002000B0002A803C802F0EFFE02AA03C2C4
:104A2000F81D072104E0401E2A07120F02702D1105
:104A3000012D01DB491EF6D5491E02D4401E067029
:104A4000FAE7C71D00980128C9DA06A8401C391AE0
:104A500006A8421CA14200DA0C0024B2200032D485
:104A6000884205DA06A909184978082900DB0F26CB
:104A700006A9091801E0641E491E401E0B78B342C6
:104A8000F9D00F2E04D106A909184B785B1C4B7086
:104A9000002806D506AA641C019800B2001D6946CC
:104AA000888024B2601E0ED411180B783033DBB22C
:104AB0003A2B03DB12AD2D783A3D5B190B70401E8B
:104AC000491E0028F1D51198006B002800D404E19C
:104AD000601E1199086300E102A803C800220023A8
:104AE00002F072FD06D202A803C8802212065140CD
:104AF00002AA03C22DB27E4868437E49FEF782FEB9
:104B0000694688800720019909B2421A00207A4933
:104B1000012A20DB049202AA30CA00260F00049862
:104B2000C00707D532003B002000290002F0DCFE60
:104B300004000D0004984010049030003900320049
:104B40003B0002F0D1FE06000F0004980028E6D1D9
:104B500002A830C029E054420026684F19E000BF87
:104B6000FF070000FFFF0F800000E03FFE03000092
:104B7000E00707D504A803C832003B0002F0B4FEEA
:104B800006000F00641004A803C804AA0CCA02F0AF
:104B9000ABFE04AA03C2002CEAD102A803C832006B
:104BA0003B0002F063FF02AA03C20098662803D10B
:104BB000019800B20A3000E006201199096B08182C
:104BC0000490142801DB13200490302069460876F5
:104BD00006A8441C049801283BDB02A803C802F085
:104BE00077FD06000834042530000A21FEF70DFE8B
:104BF0000F0030000A21FEF708FE06003037601E65
:104C0000077030000A21FEF700FE0F0030000A2175
:104C1000FEF7FBFD0600A41E303727706D1EE3D1A2
:104C200008340498083804900128D3DB02A803C88C
:104C300002F04EFD02F06EFD02000B0002A803C858
:104C400002F0DBFD00222E4B02F04EFE02AA03C250
:104C5000C3E706A8401C201A06A94A1C6B4605E0BB
:104C6000401E019909B2491E9980521C11783029C1
:104C7000F6D00099662903D1019909B2491C04E0D4
:104C8000652901D1012100E00021119B1B6B5C18FB
:104C900024B2A04200DA040024B221001DD48142D3
:104CA00004DA505C352801DB392000E0302053184D
:104CB00000E0641E5B1E491E1D788542F9D039282C
:104CC00002D1505C401C5054002906D5521E641C71
:104CD000019800B2401C69468880019800B200909B
:104CE00023B212A80178119800F00CF813B0F0BDAF
:104CF00097750000A0860100000024400000F03FEE
:104D000084D79741F3B587B015001C0002F029FF46
:104D10000090406A0078694608710798076B012C7B
:104D200001DA0124ADA508A80178202008430E9ED1
:104D3000662801D1761C17E0672800D09EE0032189
:104D4000C9438E4200DA9DE0BE4200DB9AE0761C49
:104D500007983821405C000702D4BC4200DA2700E3
:104D600036B2BF1B00D50027079880690799C9682C
:104D70000918009136B2012E2EDA401C3021009A1B
:104D80001170012F04DA07993822895C090705D5CB
:104D900069460979079AD2681154401C07998861BD
:104DA0007042874200DA7E4236B27042079948620A
:104DB000BF19A74200DA3C0024B20798C461220060
:104DC00029000798C068079B9B69C01802F08AFBFE
:104DD000381B07998862E2E0B44220DA22002900F9
:104DE000009802F07FFB079989690919079A916178
:104DF000301B079A5062012F04DA07983822805C32
:104E0000000709D568460079079AD2685054079878
:104E1000C069401C0799C86107988762BFE03200EB
:104E20002900009802F05EFB079880698019A41B96
:104E3000012F04DA07993822895C090705D56946EC
:104E40000979079AD2681154401C0799886124B2E5
:104E5000A74200DA3C0024B22200A9190798C068D2
:104E6000079B9B69C01802F03DFB079880690019F9
:104E700007998861381B0799486290E0612914D12D
:104E8000702015E0BC4205DA07993822895C0907D1
:104E900000D427007F1E00D5002708A800786728C7
:104EA00001D1652004E0452002E0412902D15020D3
:104EB00008A9087007988069411C079A91612978B0
:104EC000079AD2681154681C0090012F04DA0798E1
:104ED0003821405C000720D507988169481C079A53
:104EE00090616A461279079BDB685A54012F14DBE4
:104EF000641E24B2A74200DA3C0024B222000099CA
:104F0000079BDB68181802F0EDFA07988069001912
:104F100007998861381B079948620798C068079904
:104F20008969411808A800780870300003D42B2044
:104F300048708D1C03E02D224A708D1C46420024CF
:104F400004AF08E00A2202A802F026FE0398387097
:104F5000029E641C7F1C31B20129F3DA022C08DAAC
:104F600008A8007820210143652902D1302028704B
:104F70006D1C002C09D1302028706D1C07E0641EC8
:104F800004A8005D303028706D1C012CF7DA0798FA
:104F9000C068079989694018281A0799C861079855
:104FA0003821405C14210140102914D10798406930
:104FB0000799896940180799496A40180799C9698A
:104FC00040180799896A40180799496B884202DAA4
:104FD000081A0799086209B0F0BD00003000F1B569
:104FE0000E0014000027002B0FD01D002178B068A0
:104FF000009A9047B060002806D0F06A401CF0622A
:10500000641C6D1E01D0F1E7FF433800F2BD026859
:10501000531C036011707047F8B50400002600258A
:10502000207C002809D180239B00022281212000BE
:1050300002F07FFE80239B0006E0402302228121B4
:10504000200002F076FE402302220121200002F01F
:1050500070FE082303228221200002F06AFE8720CE
:10506000800002F0C0FE86218900611808600028D7
:1050700001D1012514E007004868006880478120BD
:1050800080003818066146610268207C002802D141
:1050900080239B0000E040230121200002F094FEC9
:1050A0002800F2BD10B50400812102F04DFE01215F
:1050B000200002F049FE8221200002F045FE8620F9
:1050C000800024182068002807D060684068804766
:1050D000206802F095FE00202060002010BD70B511
:1050E00006000C008620800033181D68217860209F
:1050F000084021D0202827D1E288100015D0607800
:10510000090606D529005B689B689847E288290054
:1051100017E08021890069180870E0884870E288EB
:105120002900300002F0B8FE0EE000222100607875
:105130005B689B68984707E060780A2804D10122E1
:105140002749300002F094FE002070BD86218900BE
:105150004058002805D0002185229200815000206F
:1051600070470220704770B5862292008418256827
:10517000143AAE1802F030FEB0602068002808D063
:1051800083208000291830686268D2689047002028
:1051900070BD022070BD10B58621890040180168DD
:1051A0004368002B0AD0802080000C182078FF284C
:1051B00004D062789B689847FF202070002010BDC3
:1051C000432101800748704743210180064870470A
:1051D00043210180054870470A2101800448704737
:1051E0000A1E00208C00002048000020D000002073
:1051F0000400002002000220002903D08720800044
:1052000011500020704786239B00C058103BC018E7
:105210000160826000207047862292008058143A14
:1052200081500020704780B58621890041580029AF
:1052300011D0822292008918CA68002A09D101225D
:10524000CA608B689BB20A68812102F0ADFD002024
:1052500002BD012002BD022002BD80B58621890069
:10526000415800290ED0812292008A58017C0029E1
:1052700002D180239B0000E04023012102F0A4FD25
:10528000002002BD022002BDF8B504000127B24D86
:10529000206838404DD0E8680C210140082907D02B
:1052A000E8680C2101400C290AD1E868C00307D541
:1052B000286880033DD5606800283AD10120F2BDFE
:1052C00060683904884201D1286809E0A021C90238
:1052D0008842286806D1B904014329602868390446
:1052E00001430AE0AF4901402960286839040840B9
:1052F000009000982868AC49014029606068002847
:105300000BD0FEF723FD06002868800311D4FEF7BA
:105310001DFD801B6528F7D3C6E1FEF717FD0600CB
:105320002868800305D5FEF711FD801B6528F7D39B
:10533000BAE12078800719D5E8680C2101400429DA
:1053400007D0E8680C2101400C2935D1E868C0037A
:1053500032D42868400702D5E0680128AED16868D9
:10536000AD49014020690002084368602078C0060A
:1053700067D5E8680C21014078D12868800502D5FE
:10538000E06900289AD0606A6968E02212020A4047
:10539000824234D200F0DEFA00288FD168689F493B
:1053A0000140606A0843686068680002000A216A78
:1053B00009060143696033E0E068002810D02968DD
:1053C0000922914308432860FEF7C0FC06002868C4
:1053D0004007C4D4FEF7BAFC801B0328F7D363E16F
:1053E0002868B8432860FEF7B1FC0600286840072B
:1053F000BCD5FEF7ABFC801B0328F7D354E16968EA
:10540000864A0A401043686068680002000A216A00
:10541000090601436960606A00F09CFA0028BCD16B
:10542000606A400B401C01218140C803A049EA6822
:105430001206120F895CC8409E490860002002F0E5
:1054400059FD207800074FD560690028286D3DD0B0
:1054500038432865FEF77AFC0600286D800743D4A0
:10546000FEF774FC801B0328F7D31DE1E0690028D8
:1054700028681CD0A90D01432960FEF767FC0600CF
:105480002868800505D4FEF761FC801B0328F7D34C
:105490000AE1686861490140606A084368606868B9
:1054A0000002000A216A090601436960C9E78249CE
:1054B00001402960FEF74AFC060028688005C0D537
:1054C000FEF744FC801B0328F7D3EDE0B8432865C2
:1054D000FEF73CFC0600286D800705D5FEF736FC7C
:1054E000801B0328F7D3DFE02078400765D5002034
:1054F00000903807A96B014003D1A96B0843A8634A
:1055000000976E480068C00512D46C480068A90D69
:1055100001436A480160FEF719FC0600674800680D
:10552000C00505D4FEF712FC801B6528F6D3BBE04E
:10553000A168A80D81420AD0614800290ED0A0229E
:10554000D20091420AD1286D290D01432965286DA9
:10555000A90D0143296508E000100240296D564A53
:105560000A402A65296D08402865A06800280CD0EB
:10557000FEF7ECFB0600286D800517D4FEF7E6FB6E
:10558000801BA8498842F6D38EE0FEF7DFFB0600B9
:10559000286D80050AD5FEF7D9FB801BA1498842FA
:1055A000F6D381E0FFFFFEFFFFFFFBFF009800281E
:1055B00003D0A86B9C490140A963207880062FD5B1
:1055C0009A48A1690029A96814D03943A960696B78
:1055D0000F436F630168420C0A430260FEF7B6FB9B
:1055E0000600A86880071BD4FEF7B0FB801B0328C9
:1055F000F7D359E0B943A9600168AA4A0A4002609A
:10560000FEF7A4FB0600A868800709D5FEF79EFBFD
:10561000801B0328F7D347E0FFE0FFFFFF1FFFFFDA
:10562000A06A002842D0E9680C220A400C2A00D166
:1056300044E68027BF049C490228286827D10140FE
:105640002960FEF783FB06002868384005D0FEF786
:105650007DFB801B0328F7D326E0E868B3490140AF
:10566000E06A0843216B0143606B0843E8602868E7
:10567000790801432960FEF769FB06002868384075
:1056800014D1FEF763FB801B0328F7D30CE0014025
:105690002960FEF75BFB06002868384006D0FEF75D
:1056A00055FB801B0328F7D30320F2BD0020F2BD79
:1056B000D8A8000800000020FFFEFFFF0070004097
:1056C000FFFBFFFFF2B582B004000127FF43012575
:1056D00097480068284088420AD2954800683840B8
:1056E000014393480160006828400299884274D1C0
:1056F000904E2078800705D5F068F0218843A16896
:105700000143F1602068284055D06068022802D12A
:105710003168890308E0032802D13168890103E078
:105720000128316802D1490702D456E0890554D5D1
:10573000F168032291430843F060FEF707FB0090F5
:10574000606802280CD1F0680C210140082932D091
:10575000FEF7FCFA0099401A32498842F3D328E058
:1057600003280CD1F0680C2101400C2923D0FEF74E
:10577000EDFA0099401A2B498842F3D319E0012829
:105780000CD1F0680C210140042914D0FEF7DEFA98
:105790000099401A23498842F3D30AE0F0680C21AB
:1057A000014008D0FEF7D2FA0099401A1D498842FC
:1057B000F4D30320FEBD02985D4909682940884260
:1057C0000DD25B480068074002983843584908608A
:1057D000086805400298854201D00120FEBD20786E
:1057E000400705D5F06859490140E0680843F0607A
:1057F0002078000706D5F068554901402069C000AF
:105800000843F06000F052F86A49F2681206120F7D
:10581000895CC84068490860002002F06BFB0020EA
:10582000FEBD000089130000FFFFFFEF20000140D4
:10583000F0B587B006000C00170001A8142101F094
:10584000BDFD022102910491002203925B4DA02034
:10585000C0050123002E01D1FE310FE0022E0CD134
:10586000080301900591286A08432862286A0140CC
:105870000091009801A952480AE00902019105929D
:10588000296A19432962296A0B400093009901A9EA
:10589000FDF7C8FD28684B4901400C4327432F60A2
:1058A00007B0F0BDFFDFFFFFFFFFFFFEF0B5214DAA
:1058B000E968454A9308102654080C20084004283B
:1058C00004D0082809D00C2809D01DE0286806401B
:1058D00001D01800F0BD1000F0BD2000F0BD3B4825
:1058E0008F023F0FC05D0902890F491CEF68FF035B
:1058F00001D5604305E02C68264001D0584300E004
:105900005043FDF782FFF0BD686801210004400F9D
:10591000401C8140C803F0BD2748006870472648F6
:1059200000682B49254A126852050BE0FFFF02FF71
:1059300000200240001002401F48006824491F4A0E
:1059400012689204520F895CC8407047FFF8FFFF4D
:10595000FFC7FFFFF0B500220121184B1C68F0259E
:10596000254018D1C02464011B4D0E07DF6A374063
:1059700002D02D68254008E0DF6A3E43DE622D68D4
:105980002540DE6A154F3740DF62A54203D1E300B0
:10599000984200D101220F4803680124A343134316
:1059A000036000680140914201D00120F0BD002059
:1059B000F0BD0000D8A80008000000200C10024034
:1059C00000040050FFFFFF800024F400E8A8000856
:1059D00028AA00080020024000700040FFFFFFEFEF
:1059E000F8B502F09BFAFCF7B7FCFCF773FE02F087
:1059F000A5FA45484168870D08240126434D4168B2
:105A0000314056D1FCF780FD6E7000202870FCF705
:105A100001FEFCF707FD002240213D48FDF758FE3E
:105A2000012280213A48FDF753FE0122390038480F
:105A3000FDF74EFEFA204000FDF796F8354E347023
:105A400070786021014371703223022231002800F6
:105A50006430FCF718FF012240212D48FDF738FE85
:105A6000002280212A48FDF733FE01223900284810
:105A7000FDF72EFE0A20FDF777F87E20307000201B
:105A8000707032230222310028006430FCF7FBFEE4
:105A9000012280211E48FDF71BFEFA204000FDF781
:105AA00063F8281DFBF748FF28006430FCF7D6FE9A
:105AB00012E001680C430460016804220A4302609A
:105AC000154801680F4001D02E7003E00068800582
:105AD00000D56E70FCF782FDFA24A4002000FDF7CB
